{
  "_format": "hh-sol-artifact-1",
  "contractName": "InsightDeck",
  "sourceName": "contracts/InsightDeck.sol",
  "abi": [
    {
      "inputs": [],
      "stateMutability": "nonpayable",
      "type": "constructor"
    },
    {
      "inputs": [],
      "name": "ERC721EnumerableForbiddenBatchMint",
      "type": "error"
    },
    {
      "inputs": [
        {
          "internalType": "address",
          "name": "sender",
          "type": "address"
        },
        {
          "internalType": "uint256",
          "name": "tokenId",
          "type": "uint256"
        },
        {
          "internalType": "address",
          "name": "owner",
          "type": "address"
        }
      ],
      "name": "ERC721IncorrectOwner",
      "type": "error"
    },
    {
      "inputs": [
        {
          "internalType": "address",
          "name": "operator",
          "type": "address"
        },
        {
          "internalType": "uint256",
          "name": "tokenId",
          "type": "uint256"
        }
      ],
      "name": "ERC721InsufficientApproval",
      "type": "error"
    },
    {
      "inputs": [
        {
          "internalType": "address",
          "name": "approver",
          "type": "address"
        }
      ],
      "name": "ERC721InvalidApprover",
      "type": "error"
    },
    {
      "inputs": [
        {
          "internalType": "address",
          "name": "operator",
          "type": "address"
        }
      ],
      "name": "ERC721InvalidOperator",
      "type": "error"
    },
    {
      "inputs": [
        {
          "internalType": "address",
          "name": "owner",
          "type": "address"
        }
      ],
      "name": "ERC721InvalidOwner",
      "type": "error"
    },
    {
      "inputs": [
        {
          "internalType": "address",
          "name": "receiver",
          "type": "address"
        }
      ],
      "name": "ERC721InvalidReceiver",
      "type": "error"
    },
    {
      "inputs": [
        {
          "internalType": "address",
          "name": "sender",
          "type": "address"
        }
      ],
      "name": "ERC721InvalidSender",
      "type": "error"
    },
    {
      "inputs": [
        {
          "internalType": "uint256",
          "name": "tokenId",
          "type": "uint256"
        }
      ],
      "name": "ERC721NonexistentToken",
      "type": "error"
    },
    {
      "inputs": [
        {
          "internalType": "address",
          "name": "owner",
          "type": "address"
        },
        {
          "internalType": "uint256",
          "name": "index",
          "type": "uint256"
        }
      ],
      "name": "ERC721OutOfBoundsIndex",
      "type": "error"
    },
    {
      "inputs": [
        {
          "internalType": "address",
          "name": "owner",
          "type": "address"
        }
      ],
      "name": "OwnableInvalidOwner",
      "type": "error"
    },
    {
      "inputs": [
        {
          "internalType": "address",
          "name": "account",
          "type": "address"
        }
      ],
      "name": "OwnableUnauthorizedAccount",
      "type": "error"
    },
    {
      "anonymous": false,
      "inputs": [
        {
          "indexed": true,
          "internalType": "address",
          "name": "owner",
          "type": "address"
        },
        {
          "indexed": true,
          "internalType": "address",
          "name": "approved",
          "type": "address"
        },
        {
          "indexed": true,
          "internalType": "uint256",
          "name": "tokenId",
          "type": "uint256"
        }
      ],
      "name": "Approval",
      "type": "event"
    },
    {
      "anonymous": false,
      "inputs": [
        {
          "indexed": true,
          "internalType": "address",
          "name": "owner",
          "type": "address"
        },
        {
          "indexed": true,
          "internalType": "address",
          "name": "operator",
          "type": "address"
        },
        {
          "indexed": false,
          "internalType": "bool",
          "name": "approved",
          "type": "bool"
        }
      ],
      "name": "ApprovalForAll",
      "type": "event"
    },
    {
      "anonymous": false,
      "inputs": [
        {
          "indexed": true,
          "internalType": "address",
          "name": "previousOwner",
          "type": "address"
        },
        {
          "indexed": true,
          "internalType": "address",
          "name": "newOwner",
          "type": "address"
        }
      ],
      "name": "OwnershipTransferred",
      "type": "event"
    },
    {
      "anonymous": false,
      "inputs": [
        {
          "indexed": true,
          "internalType": "address",
          "name": "from",
          "type": "address"
        },
        {
          "indexed": true,
          "internalType": "address",
          "name": "to",
          "type": "address"
        },
        {
          "indexed": true,
          "internalType": "uint256",
          "name": "tokenId",
          "type": "uint256"
        }
      ],
      "name": "Transfer",
      "type": "event"
    },
    {
      "inputs": [
        {
          "internalType": "address",
          "name": "to",
          "type": "address"
        },
        {
          "internalType": "uint256",
          "name": "tokenId",
          "type": "uint256"
        }
      ],
      "name": "approve",
      "outputs": [],
      "stateMutability": "nonpayable",
      "type": "function"
    },
    {
      "inputs": [
        {
          "internalType": "address",
          "name": "owner",
          "type": "address"
        }
      ],
      "name": "balanceOf",
      "outputs": [
        {
          "internalType": "uint256",
          "name": "",
          "type": "uint256"
        }
      ],
      "stateMutability": "view",
      "type": "function"
    },
    {
      "inputs": [],
      "name": "baseImageURI",
      "outputs": [
        {
          "internalType": "string",
          "name": "",
          "type": "string"
        }
      ],
      "stateMutability": "view",
      "type": "function"
    },
    {
      "inputs": [],
      "name": "baseMetadataURI",
      "outputs": [
        {
          "internalType": "string",
          "name": "",
          "type": "string"
        }
      ],
      "stateMutability": "view",
      "type": "function"
    },
    {
      "inputs": [
        {
          "internalType": "uint256",
          "name": "tokenId",
          "type": "uint256"
        }
      ],
      "name": "getApproved",
      "outputs": [
        {
          "internalType": "address",
          "name": "",
          "type": "address"
        }
      ],
      "stateMutability": "view",
      "type": "function"
    },
    {
      "inputs": [
        {
          "internalType": "address",
          "name": "owner",
          "type": "address"
        },
        {
          "internalType": "address",
          "name": "operator",
          "type": "address"
        }
      ],
      "name": "isApprovedForAll",
      "outputs": [
        {
          "internalType": "bool",
          "name": "",
          "type": "bool"
        }
      ],
      "stateMutability": "view",
      "type": "function"
    },
    {
      "inputs": [],
      "name": "mint",
      "outputs": [],
      "stateMutability": "nonpayable",
      "type": "function"
    },
    {
      "inputs": [],
      "name": "name",
      "outputs": [
        {
          "internalType": "string",
          "name": "",
          "type": "string"
        }
      ],
      "stateMutability": "view",
      "type": "function"
    },
    {
      "inputs": [],
      "name": "nextTokenId",
      "outputs": [
        {
          "internalType": "uint256",
          "name": "",
          "type": "uint256"
        }
      ],
      "stateMutability": "view",
      "type": "function"
    },
    {
      "inputs": [],
      "name": "owner",
      "outputs": [
        {
          "internalType": "address",
          "name": "",
          "type": "address"
        }
      ],
      "stateMutability": "view",
      "type": "function"
    },
    {
      "inputs": [
        {
          "internalType": "uint256",
          "name": "tokenId",
          "type": "uint256"
        }
      ],
      "name": "ownerOf",
      "outputs": [
        {
          "internalType": "address",
          "name": "",
          "type": "address"
        }
      ],
      "stateMutability": "view",
      "type": "function"
    },
    {
      "inputs": [],
      "name": "renounceOwnership",
      "outputs": [],
      "stateMutability": "nonpayable",
      "type": "function"
    },
    {
      "inputs": [
        {
          "internalType": "address",
          "name": "from",
          "type": "address"
        },
        {
          "internalType": "address",
          "name": "to",
          "type": "address"
        },
        {
          "internalType": "uint256",
          "name": "tokenId",
          "type": "uint256"
        }
      ],
      "name": "safeTransferFrom",
      "outputs": [],
      "stateMutability": "nonpayable",
      "type": "function"
    },
    {
      "inputs": [
        {
          "internalType": "address",
          "name": "from",
          "type": "address"
        },
        {
          "internalType": "address",
          "name": "to",
          "type": "address"
        },
        {
          "internalType": "uint256",
          "name": "tokenId",
          "type": "uint256"
        },
        {
          "internalType": "bytes",
          "name": "data",
          "type": "bytes"
        }
      ],
      "name": "safeTransferFrom",
      "outputs": [],
      "stateMutability": "nonpayable",
      "type": "function"
    },
    {
      "inputs": [
        {
          "internalType": "address",
          "name": "operator",
          "type": "address"
        },
        {
          "internalType": "bool",
          "name": "approved",
          "type": "bool"
        }
      ],
      "name": "setApprovalForAll",
      "outputs": [],
      "stateMutability": "nonpayable",
      "type": "function"
    },
    {
      "inputs": [
        {
          "internalType": "string",
          "name": "uri",
          "type": "string"
        }
      ],
      "name": "setBaseImageURI",
      "outputs": [],
      "stateMutability": "nonpayable",
      "type": "function"
    },
    {
      "inputs": [
        {
          "internalType": "string",
          "name": "uri",
          "type": "string"
        }
      ],
      "name": "setBaseMetadataURI",
      "outputs": [],
      "stateMutability": "nonpayable",
      "type": "function"
    },
    {
      "inputs": [
        {
          "internalType": "bytes4",
          "name": "interfaceId",
          "type": "bytes4"
        }
      ],
      "name": "supportsInterface",
      "outputs": [
        {
          "internalType": "bool",
          "name": "",
          "type": "bool"
        }
      ],
      "stateMutability": "view",
      "type": "function"
    },
    {
      "inputs": [],
      "name": "symbol",
      "outputs": [
        {
          "internalType": "string",
          "name": "",
          "type": "string"
        }
      ],
      "stateMutability": "view",
      "type": "function"
    },
    {
      "inputs": [
        {
          "internalType": "uint256",
          "name": "index",
          "type": "uint256"
        }
      ],
      "name": "tokenByIndex",
      "outputs": [
        {
          "internalType": "uint256",
          "name": "",
          "type": "uint256"
        }
      ],
      "stateMutability": "view",
      "type": "function"
    },
    {
      "inputs": [
        {
          "internalType": "uint256",
          "name": "",
          "type": "uint256"
        }
      ],
      "name": "tokenInsightId",
      "outputs": [
        {
          "internalType": "uint256",
          "name": "",
          "type": "uint256"
        }
      ],
      "stateMutability": "view",
      "type": "function"
    },
    {
      "inputs": [
        {
          "internalType": "address",
          "name": "owner",
          "type": "address"
        },
        {
          "internalType": "uint256",
          "name": "index",
          "type": "uint256"
        }
      ],
      "name": "tokenOfOwnerByIndex",
      "outputs": [
        {
          "internalType": "uint256",
          "name": "",
          "type": "uint256"
        }
      ],
      "stateMutability": "view",
      "type": "function"
    },
    {
      "inputs": [
        {
          "internalType": "uint256",
          "name": "tokenId",
          "type": "uint256"
        }
      ],
      "name": "tokenURI",
      "outputs": [
        {
          "internalType": "string",
          "name": "",
          "type": "string"
        }
      ],
      "stateMutability": "view",
      "type": "function"
    },
    {
      "inputs": [],
      "name": "totalSupply",
      "outputs": [
        {
          "internalType": "uint256",
          "name": "",
          "type": "uint256"
        }
      ],
      "stateMutability": "view",
      "type": "function"
    },
    {
      "inputs": [
        {
          "internalType": "address",
          "name": "from",
          "type": "address"
        },
        {
          "internalType": "address",
          "name": "to",
          "type": "address"
        },
        {
          "internalType": "uint256",
          "name": "tokenId",
          "type": "uint256"
        }
      ],
      "name": "transferFrom",
      "outputs": [],
      "stateMutability": "nonpayable",
      "type": "function"
    },
    {
      "inputs": [
        {
          "internalType": "address",
          "name": "newOwner",
          "type": "address"
        }
      ],
      "name": "transferOwnership",
      "outputs": [],
      "stateMutability": "nonpayable",
      "type": "function"
    }
  ],
  "bytecode": "0x60806040526000600b553480156200001657600080fd5b50336040518060400160405280600b81526020017f496e73696768744465636b0000000000000000000000000000000000000000008152506040518060400160405280600781526020017f494e534947485400000000000000000000000000000000000000000000000000815250816000908162000095919062000477565b508060019081620000a7919062000477565b505050600073ffffffffffffffffffffffffffffffffffffffff168173ffffffffffffffffffffffffffffffffffffffff16036200011f5760006040517f1e4fbdf7000000000000000000000000000000000000000000000000000000008152600401620001169190620005a3565b60405180910390fd5b62000130816200013760201b60201c565b50620005c0565b6000600a60009054906101000a900473ffffffffffffffffffffffffffffffffffffffff16905081600a60006101000a81548173ffffffffffffffffffffffffffffffffffffffff021916908373ffffffffffffffffffffffffffffffffffffffff1602179055508173ffffffffffffffffffffffffffffffffffffffff168173ffffffffffffffffffffffffffffffffffffffff167f8be0079c531659141344cd1fd0a4f28419497f9722a3daafe3b4186f6b6457e060405160405180910390a35050565b600081519050919050565b7f4e487b7100000000000000000000000000000000000000000000000000000000600052604160045260246000fd5b7f4e487b7100000000000000000000000000000000000000000000000000000000600052602260045260246000fd5b600060028204905060018216806200027f57607f821691505b60208210810362000295576200029462000237565b5b50919050565b60008190508160005260206000209050919050565b60006020601f8301049050919050565b600082821b905092915050565b600060088302620002ff7fffffffffffffffffffffffffffffffffffffffffffffffffffffffffffffffff82620002c0565b6200030b8683620002c0565b95508019841693508086168417925050509392505050565b6000819050919050565b6000819050919050565b600062000358620003526200034c8462000323565b6200032d565b62000323565b9050919050565b6000819050919050565b620003748362000337565b6200038c62000383826200035f565b848454620002cd565b825550505050565b600090565b620003a362000394565b620003b081848462000369565b505050565b5b81811015620003d857620003cc60008262000399565b600181019050620003b6565b5050565b601f8211156200042757620003f1816200029b565b620003fc84620002b0565b810160208510156200040c578190505b620004246200041b85620002b0565b830182620003b5565b50505b505050565b600082821c905092915050565b60006200044c600019846008026200042c565b1980831691505092915050565b600062000467838362000439565b9150826002028217905092915050565b6200048282620001fd565b67ffffffffffffffff8111156200049e576200049d62000208565b5b620004aa825462000266565b620004b7828285620003dc565b600060209050601f831160018114620004ef5760008415620004da578287015190505b620004e6858262000459565b86555062000556565b601f198416620004ff866200029b565b60005b82811015620005295784890151825560018201915060208501945060208101905062000502565b8683101562000549578489015162000545601f89168262000439565b8355505b6001600288020188555050505b505050505050565b600073ffffffffffffffffffffffffffffffffffffffff82169050919050565b60006200058b826200055e565b9050919050565b6200059d816200057e565b82525050565b6000602082019050620005ba600083018462000592565b92915050565b61302f80620005d06000396000f3fe608060405234801561001057600080fd5b506004361061018e5760003560e01c806370a08231116100de5780638da5cb5b11610097578063b88d4fde11610071578063b88d4fde14610471578063c87b56dd1461048d578063e985e9c5146104bd578063f2fde38b146104ed5761018e565b80638da5cb5b1461041957806395d89b4114610437578063a22cb465146104555761018e565b806370a082311461036b578063715018a61461039b57806374f82e30146103a557806375794a3c146103c35780637e518ec8146103e15780638647ca76146103fd5761018e565b806318160ddd1161014b57806342842e0e1161012557806342842e0e146102d15780634f6ccce7146102ed5780635b2bd79e1461031d5780636352211e1461033b5761018e565b806318160ddd1461026757806323b872dd146102855780632f745c59146102a15761018e565b806301ffc9a71461019357806306fdde03146101c3578063081812fc146101e157806308d1a4b114610211578063095ea7b3146102415780631249c58b1461025d575b600080fd5b6101ad60048036038101906101a891906121eb565b610509565b6040516101ba9190612233565b60405180910390f35b6101cb610583565b6040516101d891906122de565b60405180910390f35b6101fb60048036038101906101f69190612336565b610615565b60405161020891906123a4565b60405180910390f35b61022b60048036038101906102269190612336565b610631565b60405161023891906123ce565b60405180910390f35b61025b60048036038101906102569190612415565b610649565b005b61026561065f565b005b61026f6106e2565b60405161027c91906123ce565b60405180910390f35b61029f600480360381019061029a9190612455565b6106ef565b005b6102bb60048036038101906102b69190612415565b6107f1565b6040516102c891906123ce565b60405180910390f35b6102eb60048036038101906102e69190612455565b61089a565b005b61030760048036038101906103029190612336565b6108ba565b60405161031491906123ce565b60405180910390f35b610325610930565b60405161033291906122de565b60405180910390f35b61035560048036038101906103509190612336565b6109be565b60405161036291906123a4565b60405180910390f35b610385600480360381019061038091906124a8565b6109d0565b60405161039291906123ce565b60405180910390f35b6103a3610a8a565b005b6103ad610a9e565b6040516103ba91906122de565b60405180910390f35b6103cb610b2c565b6040516103d891906123ce565b60405180910390f35b6103fb60048036038101906103f6919061260a565b610b32565b005b6104176004803603810190610412919061260a565b610b4d565b005b610421610b68565b60405161042e91906123a4565b60405180910390f35b61043f610b92565b60405161044c91906122de565b60405180910390f35b61046f600480360381019061046a919061267f565b610c24565b005b61048b60048036038101906104869190612760565b610c3a565b005b6104a760048036038101906104a29190612336565b610c5f565b6040516104b491906122de565b60405180910390f35b6104d760048036038101906104d291906127e3565b610d23565b6040516104e49190612233565b60405180910390f35b610507600480360381019061050291906124a8565b610db7565b005b60007f780e9d63000000000000000000000000000000000000000000000000000000007bffffffffffffffffffffffffffffffffffffffffffffffffffffffff1916827bffffffffffffffffffffffffffffffffffffffffffffffffffffffff1916148061057c575061057b82610e3d565b5b9050919050565b60606000805461059290612852565b80601f01602080910402602001604051908101604052809291908181526020018280546105be90612852565b801561060b5780601f106105e05761010080835404028352916020019161060b565b820191906000526020600020905b8154815290600101906020018083116105ee57829003601f168201915b5050505050905090565b600061062082610f1f565b5061062a82610fa7565b9050919050565b600e6020528060005260406000206000915090505481565b61065b8282610656610fe4565b610fec565b5050565b6000600b549050600b6000815480929190610679906128b2565b91905055506000606433428460405160200161069793929190612963565b6040516020818303038152906040528051906020012060001c6106ba91906129cf565b90506106c63383610ffe565b80600e6000848152602001908152602001600020819055505050565b6000600880549050905090565b600073ffffffffffffffffffffffffffffffffffffffff168273ffffffffffffffffffffffffffffffffffffffff16036107615760006040517f64a0ae9200000000000000000000000000000000000000000000000000000000815260040161075891906123a4565b60405180910390fd5b60006107758383610770610fe4565b61101c565b90508373ffffffffffffffffffffffffffffffffffffffff168173ffffffffffffffffffffffffffffffffffffffff16146107eb578382826040517f64283d7b0000000000000000000000000000000000000000000000000000000081526004016107e293929190612a00565b60405180910390fd5b50505050565b60006107fc836109d0565b82106108415782826040517fa57d13dc000000000000000000000000000000000000000000000000000000008152600401610838929190612a37565b60405180910390fd5b600660008473ffffffffffffffffffffffffffffffffffffffff1673ffffffffffffffffffffffffffffffffffffffff168152602001908152602001600020600083815260200190815260200160002054905092915050565b6108b583838360405180602001604052806000815250610c3a565b505050565b60006108c46106e2565b821061090a576000826040517fa57d13dc000000000000000000000000000000000000000000000000000000008152600401610901929190612a37565b60405180910390fd5b6008828154811061091e5761091d612a60565b5b90600052602060002001549050919050565b600c805461093d90612852565b80601f016020809104026020016040519081016040528092919081815260200182805461096990612852565b80156109b65780601f1061098b576101008083540402835291602001916109b6565b820191906000526020600020905b81548152906001019060200180831161099957829003601f168201915b505050505081565b60006109c982610f1f565b9050919050565b60008073ffffffffffffffffffffffffffffffffffffffff168273ffffffffffffffffffffffffffffffffffffffff1603610a435760006040517f89c62b64000000000000000000000000000000000000000000000000000000008152600401610a3a91906123a4565b60405180910390fd5b600360008373ffffffffffffffffffffffffffffffffffffffff1673ffffffffffffffffffffffffffffffffffffffff168152602001908152602001600020549050919050565b610a92611139565b610a9c60006111c0565b565b600d8054610aab90612852565b80601f0160208091040260200160405190810160405280929190818152602001828054610ad790612852565b8015610b245780601f10610af957610100808354040283529160200191610b24565b820191906000526020600020905b815481529060010190602001808311610b0757829003601f168201915b505050505081565b600b5481565b610b3a611139565b80600c9081610b499190612c3b565b5050565b610b55611139565b80600d9081610b649190612c3b565b5050565b6000600a60009054906101000a900473ffffffffffffffffffffffffffffffffffffffff16905090565b606060018054610ba190612852565b80601f0160208091040260200160405190810160405280929190818152602001828054610bcd90612852565b8015610c1a5780601f10610bef57610100808354040283529160200191610c1a565b820191906000526020600020905b815481529060010190602001808311610bfd57829003601f168201915b5050505050905090565b610c36610c2f610fe4565b8383611286565b5050565b610c458484846106ef565b610c59610c50610fe4565b858585856113f5565b50505050565b6060600073ffffffffffffffffffffffffffffffffffffffff16610c82836115a6565b73ffffffffffffffffffffffffffffffffffffffff1603610cd8576040517f08c379a0000000000000000000000000000000000000000000000000000000008152600401610ccf90612d59565b60405180910390fd5b6000600e6000848152602001908152602001600020549050600d610cfb826115e3565b604051602001610d0c929190612e84565b604051602081830303815290604052915050919050565b6000600560008473ffffffffffffffffffffffffffffffffffffffff1673ffffffffffffffffffffffffffffffffffffffff16815260200190815260200160002060008373ffffffffffffffffffffffffffffffffffffffff1673ffffffffffffffffffffffffffffffffffffffff16815260200190815260200160002060009054906101000a900460ff16905092915050565b610dbf611139565b600073ffffffffffffffffffffffffffffffffffffffff168173ffffffffffffffffffffffffffffffffffffffff1603610e315760006040517f1e4fbdf7000000000000000000000000000000000000000000000000000000008152600401610e2891906123a4565b60405180910390fd5b610e3a816111c0565b50565b60007f80ac58cd000000000000000000000000000000000000000000000000000000007bffffffffffffffffffffffffffffffffffffffffffffffffffffffff1916827bffffffffffffffffffffffffffffffffffffffffffffffffffffffff19161480610f0857507f5b5e139f000000000000000000000000000000000000000000000000000000007bffffffffffffffffffffffffffffffffffffffffffffffffffffffff1916827bffffffffffffffffffffffffffffffffffffffffffffffffffffffff1916145b80610f185750610f17826116b1565b5b9050919050565b600080610f2b836115a6565b9050600073ffffffffffffffffffffffffffffffffffffffff168173ffffffffffffffffffffffffffffffffffffffff1603610f9e57826040517f7e273289000000000000000000000000000000000000000000000000000000008152600401610f9591906123ce565b60405180910390fd5b80915050919050565b60006004600083815260200190815260200160002060009054906101000a900473ffffffffffffffffffffffffffffffffffffffff169050919050565b600033905090565b610ff9838383600161171b565b505050565b6110188282604051806020016040528060008152506118e0565b5050565b60008061102a858585611904565b9050600073ffffffffffffffffffffffffffffffffffffffff168173ffffffffffffffffffffffffffffffffffffffff160361106e5761106984611b1e565b6110ad565b8473ffffffffffffffffffffffffffffffffffffffff168173ffffffffffffffffffffffffffffffffffffffff16146110ac576110ab8185611b67565b5b5b600073ffffffffffffffffffffffffffffffffffffffff168573ffffffffffffffffffffffffffffffffffffffff16036110ef576110ea84611c52565b61112e565b8473ffffffffffffffffffffffffffffffffffffffff168173ffffffffffffffffffffffffffffffffffffffff161461112d5761112c8585611d23565b5b5b809150509392505050565b611141610fe4565b73ffffffffffffffffffffffffffffffffffffffff1661115f610b68565b73ffffffffffffffffffffffffffffffffffffffff16146111be57611182610fe4565b6040517f118cdaa70000000000000000000000000000000000000000000000000000000081526004016111b591906123a4565b60405180910390fd5b565b6000600a60009054906101000a900473ffffffffffffffffffffffffffffffffffffffff16905081600a60006101000a81548173ffffffffffffffffffffffffffffffffffffffff021916908373ffffffffffffffffffffffffffffffffffffffff1602179055508173ffffffffffffffffffffffffffffffffffffffff168173ffffffffffffffffffffffffffffffffffffffff167f8be0079c531659141344cd1fd0a4f28419497f9722a3daafe3b4186f6b6457e060405160405180910390a35050565b600073ffffffffffffffffffffffffffffffffffffffff168273ffffffffffffffffffffffffffffffffffffffff16036112f757816040517f5b08ba180000000000000000000000000000000000000000000000000000000081526004016112ee91906123a4565b60405180910390fd5b80600560008573ffffffffffffffffffffffffffffffffffffffff1673ffffffffffffffffffffffffffffffffffffffff16815260200190815260200160002060008473ffffffffffffffffffffffffffffffffffffffff1673ffffffffffffffffffffffffffffffffffffffff16815260200190815260200160002060006101000a81548160ff0219169083151502179055508173ffffffffffffffffffffffffffffffffffffffff168373ffffffffffffffffffffffffffffffffffffffff167f17307eab39ab6107e8899845ad3d59bd9653f200f220920489ca2b5937696c31836040516113e89190612233565b60405180910390a3505050565b60008373ffffffffffffffffffffffffffffffffffffffff163b111561159f578273ffffffffffffffffffffffffffffffffffffffff1663150b7a02868685856040518563ffffffff1660e01b81526004016114549493929190612f08565b6020604051808303816000875af192505050801561149057506040513d601f19601f8201168201806040525081019061148d9190612f69565b60015b611514573d80600081146114c0576040519150601f19603f3d011682016040523d82523d6000602084013e6114c5565b606091505b50600081510361150c57836040517f64a0ae9200000000000000000000000000000000000000000000000000000000815260040161150391906123a4565b60405180910390fd5b805160208201fd5b63150b7a0260e01b7bffffffffffffffffffffffffffffffffffffffffffffffffffffffff1916817bffffffffffffffffffffffffffffffffffffffffffffffffffffffff19161461159d57836040517f64a0ae9200000000000000000000000000000000000000000000000000000000815260040161159491906123a4565b60405180910390fd5b505b5050505050565b60006002600083815260200190815260200160002060009054906101000a900473ffffffffffffffffffffffffffffffffffffffff169050919050565b6060600060016115f284611dae565b01905060008167ffffffffffffffff811115611611576116106124df565b5b6040519080825280601f01601f1916602001820160405280156116435781602001600182028036833780820191505090505b509050600082602083010190505b6001156116a6578080600190039150507f3031323334353637383961626364656600000000000000000000000000000000600a86061a8153600a858161169a576116996129a0565b5b04945060008503611651575b819350505050919050565b60007f01ffc9a7000000000000000000000000000000000000000000000000000000007bffffffffffffffffffffffffffffffffffffffffffffffffffffffff1916827bffffffffffffffffffffffffffffffffffffffffffffffffffffffff1916149050919050565b80806117545750600073ffffffffffffffffffffffffffffffffffffffff168273ffffffffffffffffffffffffffffffffffffffff1614155b1561188857600061176484610f1f565b9050600073ffffffffffffffffffffffffffffffffffffffff168373ffffffffffffffffffffffffffffffffffffffff16141580156117cf57508273ffffffffffffffffffffffffffffffffffffffff168173ffffffffffffffffffffffffffffffffffffffff1614155b80156117e257506117e08184610d23565b155b1561182457826040517fa9fbf51f00000000000000000000000000000000000000000000000000000000815260040161181b91906123a4565b60405180910390fd5b811561188657838573ffffffffffffffffffffffffffffffffffffffff168273ffffffffffffffffffffffffffffffffffffffff167f8c5be1e5ebec7d5bd14f71427d1e84f3dd0314c0f7b2291e5b200ac8c7c3b92560405160405180910390a45b505b836004600085815260200190815260200160002060006101000a81548173ffffffffffffffffffffffffffffffffffffffff021916908373ffffffffffffffffffffffffffffffffffffffff16021790555050505050565b6118ea8383611f01565b6118ff6118f5610fe4565b60008585856113f5565b505050565b600080611910846115a6565b9050600073ffffffffffffffffffffffffffffffffffffffff168373ffffffffffffffffffffffffffffffffffffffff161461195257611951818486611ffa565b5b600073ffffffffffffffffffffffffffffffffffffffff168173ffffffffffffffffffffffffffffffffffffffff16146119e35761199460008560008061171b565b6001600360008373ffffffffffffffffffffffffffffffffffffffff1673ffffffffffffffffffffffffffffffffffffffff168152602001908152602001600020600082825403925050819055505b600073ffffffffffffffffffffffffffffffffffffffff168573ffffffffffffffffffffffffffffffffffffffff1614611a66576001600360008773ffffffffffffffffffffffffffffffffffffffff1673ffffffffffffffffffffffffffffffffffffffff168152602001908152602001600020600082825401925050819055505b846002600086815260200190815260200160002060006101000a81548173ffffffffffffffffffffffffffffffffffffffff021916908373ffffffffffffffffffffffffffffffffffffffff160217905550838573ffffffffffffffffffffffffffffffffffffffff168273ffffffffffffffffffffffffffffffffffffffff167fddf252ad1be2c89b69c2b068fc378daa952ba7f163c4a11628f55a4df523b3ef60405160405180910390a4809150509392505050565b6008805490506009600083815260200190815260200160002081905550600881908060018154018082558091505060019003906000526020600020016000909190919091505550565b6000611b72836109d0565b90506000600760008481526020019081526020016000205490506000600660008673ffffffffffffffffffffffffffffffffffffffff1673ffffffffffffffffffffffffffffffffffffffff1681526020019081526020016000209050828214611c1e5760008160008581526020019081526020016000205490508082600085815260200190815260200160002081905550826007600083815260200190815260200160002081905550505b6007600085815260200190815260200160002060009055806000848152602001908152602001600020600090555050505050565b60006001600880549050611c669190612f96565b9050600060096000848152602001908152602001600020549050600060088381548110611c9657611c95612a60565b5b906000526020600020015490508060088381548110611cb857611cb7612a60565b5b906000526020600020018190555081600960008381526020019081526020016000208190555060096000858152602001908152602001600020600090556008805480611d0757611d06612fca565b5b6001900381819060005260206000200160009055905550505050565b60006001611d30846109d0565b611d3a9190612f96565b905081600660008573ffffffffffffffffffffffffffffffffffffffff1673ffffffffffffffffffffffffffffffffffffffff168152602001908152602001600020600083815260200190815260200160002081905550806007600084815260200190815260200160002081905550505050565b600080600090507a184f03e93ff9f4daa797ed6e38ed64bf6a1f0100000000000000008310611e0c577a184f03e93ff9f4daa797ed6e38ed64bf6a1f0100000000000000008381611e0257611e016129a0565b5b0492506040810190505b6d04ee2d6d415b85acef81000000008310611e49576d04ee2d6d415b85acef81000000008381611e3f57611e3e6129a0565b5b0492506020810190505b662386f26fc100008310611e7857662386f26fc100008381611e6e57611e6d6129a0565b5b0492506010810190505b6305f5e1008310611ea1576305f5e1008381611e9757611e966129a0565b5b0492506008810190505b6127108310611ec6576127108381611ebc57611ebb6129a0565b5b0492506004810190505b60648310611ee95760648381611edf57611ede6129a0565b5b0492506002810190505b600a8310611ef8576001810190505b80915050919050565b600073ffffffffffffffffffffffffffffffffffffffff168273ffffffffffffffffffffffffffffffffffffffff1603611f735760006040517f64a0ae92000000000000000000000000000000000000000000000000000000008152600401611f6a91906123a4565b60405180910390fd5b6000611f818383600061101c565b9050600073ffffffffffffffffffffffffffffffffffffffff168173ffffffffffffffffffffffffffffffffffffffff1614611ff55760006040517f73c6ac6e000000000000000000000000000000000000000000000000000000008152600401611fec91906123a4565b60405180910390fd5b505050565b6120058383836120be565b6120b957600073ffffffffffffffffffffffffffffffffffffffff168373ffffffffffffffffffffffffffffffffffffffff160361207a57806040517f7e27328900000000000000000000000000000000000000000000000000000000815260040161207191906123ce565b60405180910390fd5b81816040517f177e802f0000000000000000000000000000000000000000000000000000000081526004016120b0929190612a37565b60405180910390fd5b505050565b60008073ffffffffffffffffffffffffffffffffffffffff168373ffffffffffffffffffffffffffffffffffffffff161415801561217657508273ffffffffffffffffffffffffffffffffffffffff168473ffffffffffffffffffffffffffffffffffffffff16148061213757506121368484610d23565b5b8061217557508273ffffffffffffffffffffffffffffffffffffffff1661215d83610fa7565b73ffffffffffffffffffffffffffffffffffffffff16145b5b90509392505050565b6000604051905090565b600080fd5b600080fd5b60007fffffffff0000000000000000000000000000000000000000000000000000000082169050919050565b6121c881612193565b81146121d357600080fd5b50565b6000813590506121e5816121bf565b92915050565b60006020828403121561220157612200612189565b5b600061220f848285016121d6565b91505092915050565b60008115159050919050565b61222d81612218565b82525050565b60006020820190506122486000830184612224565b92915050565b600081519050919050565b600082825260208201905092915050565b60005b8381101561228857808201518184015260208101905061226d565b60008484015250505050565b6000601f19601f8301169050919050565b60006122b08261224e565b6122ba8185612259565b93506122ca81856020860161226a565b6122d381612294565b840191505092915050565b600060208201905081810360008301526122f881846122a5565b905092915050565b6000819050919050565b61231381612300565b811461231e57600080fd5b50565b6000813590506123308161230a565b92915050565b60006020828403121561234c5761234b612189565b5b600061235a84828501612321565b91505092915050565b600073ffffffffffffffffffffffffffffffffffffffff82169050919050565b600061238e82612363565b9050919050565b61239e81612383565b82525050565b60006020820190506123b96000830184612395565b92915050565b6123c881612300565b82525050565b60006020820190506123e360008301846123bf565b92915050565b6123f281612383565b81146123fd57600080fd5b50565b60008135905061240f816123e9565b92915050565b6000806040838503121561242c5761242b612189565b5b600061243a85828601612400565b925050602061244b85828601612321565b9150509250929050565b60008060006060848603121561246e5761246d612189565b5b600061247c86828701612400565b935050602061248d86828701612400565b925050604061249e86828701612321565b9150509250925092565b6000602082840312156124be576124bd612189565b5b60006124cc84828501612400565b91505092915050565b600080fd5b600080fd5b7f4e487b7100000000000000000000000000000000000000000000000000000000600052604160045260246000fd5b61251782612294565b810181811067ffffffffffffffff82111715612536576125356124df565b5b80604052505050565b600061254961217f565b9050612555828261250e565b919050565b600067ffffffffffffffff821115612575576125746124df565b5b61257e82612294565b9050602081019050919050565b82818337600083830152505050565b60006125ad6125a88461255a565b61253f565b9050828152602081018484840111156125c9576125c86124da565b5b6125d484828561258b565b509392505050565b600082601f8301126125f1576125f06124d5565b5b813561260184826020860161259a565b91505092915050565b6000602082840312156126205761261f612189565b5b600082013567ffffffffffffffff81111561263e5761263d61218e565b5b61264a848285016125dc565b91505092915050565b61265c81612218565b811461266757600080fd5b50565b60008135905061267981612653565b92915050565b6000806040838503121561269657612695612189565b5b60006126a485828601612400565b92505060206126b58582860161266a565b9150509250929050565b600067ffffffffffffffff8211156126da576126d96124df565b5b6126e382612294565b9050602081019050919050565b60006127036126fe846126bf565b61253f565b90508281526020810184848401111561271f5761271e6124da565b5b61272a84828561258b565b509392505050565b600082601f830112612747576127466124d5565b5b81356127578482602086016126f0565b91505092915050565b6000806000806080858703121561277a57612779612189565b5b600061278887828801612400565b945050602061279987828801612400565b93505060406127aa87828801612321565b925050606085013567ffffffffffffffff8111156127cb576127ca61218e565b5b6127d787828801612732565b91505092959194509250565b600080604083850312156127fa576127f9612189565b5b600061280885828601612400565b925050602061281985828601612400565b9150509250929050565b7f4e487b7100000000000000000000000000000000000000000000000000000000600052602260045260246000fd5b6000600282049050600182168061286a57607f821691505b60208210810361287d5761287c612823565b5b50919050565b7f4e487b7100000000000000000000000000000000000000000000000000000000600052601160045260246000fd5b60006128bd82612300565b91507fffffffffffffffffffffffffffffffffffffffffffffffffffffffffffffffff82036128ef576128ee612883565b5b600182019050919050565b60008160601b9050919050565b6000612912826128fa565b9050919050565b600061292482612907565b9050919050565b61293c61293782612383565b612919565b82525050565b6000819050919050565b61295d61295882612300565b612942565b82525050565b600061296f828661292b565b60148201915061297f828561294c565b60208201915061298f828461294c565b602082019150819050949350505050565b7f4e487b7100000000000000000000000000000000000000000000000000000000600052601260045260246000fd5b60006129da82612300565b91506129e583612300565b9250826129f5576129f46129a0565b5b828206905092915050565b6000606082019050612a156000830186612395565b612a2260208301856123bf565b612a2f6040830184612395565b949350505050565b6000604082019050612a4c6000830185612395565b612a5960208301846123bf565b9392505050565b7f4e487b7100000000000000000000000000000000000000000000000000000000600052603260045260246000fd5b60008190508160005260206000209050919050565b60006020601f8301049050919050565b600082821b905092915050565b600060088302612af17fffffffffffffffffffffffffffffffffffffffffffffffffffffffffffffffff82612ab4565b612afb8683612ab4565b95508019841693508086168417925050509392505050565b6000819050919050565b6000612b38612b33612b2e84612300565b612b13565b612300565b9050919050565b6000819050919050565b612b5283612b1d565b612b66612b5e82612b3f565b848454612ac1565b825550505050565b600090565b612b7b612b6e565b612b86818484612b49565b505050565b5b81811015612baa57612b9f600082612b73565b600181019050612b8c565b5050565b601f821115612bef57612bc081612a8f565b612bc984612aa4565b81016020851015612bd8578190505b612bec612be485612aa4565b830182612b8b565b50505b505050565b600082821c905092915050565b6000612c1260001984600802612bf4565b1980831691505092915050565b6000612c2b8383612c01565b9150826002028217905092915050565b612c448261224e565b67ffffffffffffffff811115612c5d57612c5c6124df565b5b612c678254612852565b612c72828285612bae565b600060209050601f831160018114612ca55760008415612c93578287015190505b612c9d8582612c1f565b865550612d05565b601f198416612cb386612a8f565b60005b82811015612cdb57848901518255600182019150602085019450602081019050612cb6565b86831015612cf85784890151612cf4601f891682612c01565b8355505b6001600288020188555050505b505050505050565b7f4e6f6e6578697374656e7420746f6b656e000000000000000000000000000000600082015250565b6000612d43601183612259565b9150612d4e82612d0d565b602082019050919050565b60006020820190508181036000830152612d7281612d36565b9050919050565b600081905092915050565b60008154612d9181612852565b612d9b8186612d79565b94506001821660008114612db65760018114612dcb57612dfe565b60ff1983168652811515820286019350612dfe565b612dd485612a8f565b60005b83811015612df657815481890152600182019150602081019050612dd7565b838801955050505b50505092915050565b6000612e128261224e565b612e1c8185612d79565b9350612e2c81856020860161226a565b80840191505092915050565b7f2e706e6700000000000000000000000000000000000000000000000000000000600082015250565b6000612e6e600483612d79565b9150612e7982612e38565b600482019050919050565b6000612e908285612d84565b9150612e9c8284612e07565b9150612ea782612e61565b91508190509392505050565b600081519050919050565b600082825260208201905092915050565b6000612eda82612eb3565b612ee48185612ebe565b9350612ef481856020860161226a565b612efd81612294565b840191505092915050565b6000608082019050612f1d6000830187612395565b612f2a6020830186612395565b612f3760408301856123bf565b8181036060830152612f498184612ecf565b905095945050505050565b600081519050612f63816121bf565b92915050565b600060208284031215612f7f57612f7e612189565b5b6000612f8d84828501612f54565b91505092915050565b6000612fa182612300565b9150612fac83612300565b9250828203905081811115612fc457612fc3612883565b5b92915050565b7f4e487b7100000000000000000000000000000000000000000000000000000000600052603160045260246000fdfea2646970667358221220f721e2ce4dd23e0952833f587232b9ac227e601ae0e48d79f35731fe3ecbdcb464736f6c63430008140033",
  "linkReferences": {},
  "deployedLinkReferences": {}
}